:020000040800F2
:100000000005002081020008E1020008E10200086A
:10001000E1020008E1020008E1020008000000001F
:10002000000000000000000000000000E1020008E5
:10003000E102000800000000E1020008E1020008FF
:10004000E1020008E1020008E1020008E102000804
:10005000E1020008E1020008E1020008E1020008F4
:10006000E1020008E1020008E1020008E1020008E4
:10007000E1020008E1020008E1020008E1020008D4
:10008000E1020008E1020008E1020008E1020008C4
:10009000E1020008E1020008E1020008E1020008B4
:1000A000E1020008E1020008E1020008E1020008A4
:1000B000E1020008E1020008E1020008E102000894
:1000C000E1020008E1020008E1020008E102000884
:1000D000E1020008E1020008E1020008E102000874
:1000E000E1020008E1020008E1020008000000004F
:1000F0000000000000000000000000000000000000
:1001000000000000000000005FF808F180B500AFBB
:10011000154B154A126842F001021A60124A124B3E
:100120005968124B0B4053600F4A0F4B1B6823F06A
:10013000847323F4803313600B4B0B4A126822F450
:1001400080221A60084B084A526822F4FE025A6064
:10015000054B4FF41F029A6000F00CF8044B4FF06F
:1001600000629A6080BD00BF001002400000FFF8EE
:1001700000ED00E080B500AF00F002F880BD00BFE8
:1001800080B483B000AF00237B6000233B603A4B18
:10019000394A126842F480321A60374B1B6803F404
:1001A00000333B607B6801337B603B68002B03D1ED
:1001B0007B68B3F5A06FF0D12F4B1B6803F40033BD
:1001C000002B02D001233B6001E000233B603B6831
:1001D000012B4BD1294B294A126842F010021A60B8
:1001E000264B264A126822F003021A60234B234A48
:1001F000126842F002021A601F4B1F4A52685A608E
:100200001D4B1D4A52685A601B4B1B4A526842F4F0
:1002100080625A60184B184A526822F47C125A6065
:10022000154B154A526842F4E8125A60124B124AB2
:10023000126842F080721A6000BF0F4B1B6803F017
:100240000073002BF9D00C4B0B4A526822F00302CA
:100250005A60094B084A526842F002025A6000BFD5
:10026000054B5B6803F00C03082BF9D10C37BD4636
:100270005DF8047B704700BF001002400020024080
:1002800080B582B000AF114B7B60114B3B6007E043
:100290003B681A1D3A607A68111D796012681A600D
:1002A0003A680C4B9A42F3D30B480C494FF00002CA
:1002B0008842B8BF40F8042BFFF6FAAFFFF726FFDD
:1002C00000F0EAF80837BD4680BD00BF301C0008CA
:1002D00000000020BC000020BC0000200001002025
:1002E00080B400AFFEE700BF80B489B000AF786093
:1002F00039600023FB6100233B610023BB610023C5
:10030000FB6000237B610023BB603B68DB7803F06C
:100310000F03FB613B68DB7803F01003002B04D074
:100320003B689B78FA691343FB613B681B88DBB22F
:10033000002B44D07B681B687B610023BB6138E0E5
:10034000BB69012202FA03F3FB603B681B881A4673
:10035000FB6813403B613A69FB689A4226D1BB694E
:100360009B00FB60FB680F2202FA03F3BB60BB68D3
:10037000DB437A6913407B61FB68FA6902FA03F395
:100380007A6913437B613B68DB78282B05D1BB6915
:1003900001229A407B685A6108E03B68DB78482B71
:1003A00004D1BB6901229A407B681A61BB690133A1
:1003B000BB61BB69072BC3D97B687A691A603B684C
:1003C0001B88FF2B46D97B685B687B610023BB6180
:1003D0003AE0BB690833012202FA03F3FB603B6891
:1003E0001B881A46FB6813403B613A69FB689A42D6
:1003F00027D1BB699B00FB60FB680F2202FA03F365
:10040000BB60BB68DB437A6913407B61FB68FA69B8
:1004100002FA03F37A6913437B613B68DB78282B8C
:1004200005D1BB69083301229A407B685A613B6859
:10043000DB78482B05D1BB69083301229A407B68E1
:100440001A61BB690133BB61BB69072BC1D97B68EA
:100450007A695A602437BD465DF8047B704700BF57
:1004600080B483B000AF78600B467B807A887B686D
:100470001A610C37BD465DF8047B704780B483B0C9
:1004800000AF78600B467B807A887B685A610C37B6
:10049000BD465DF8047B704780B586B004AF3D4B28
:1004A0003C4A926942F004029A613A4B394A926995
:1004B00042F008029A61374B364A926942F01002C4
:1004C0009A61FF233B800323BB701023FB703B46E4
:1004D00031481946FFF708FF17233B800323BB7001
:1004E0001023FB703B462D481946FFF7FDFE022006
:1004F00000F00EFB02462A4B1A60294B1B680822AB
:100500005A70274B1B6810229A70254B1B680122DA
:100510001A702248102100F05DF82048022100F0F6
:100520006DF81E48042100F07DF81C48012100F000
:100530008DF81948FF2100F09DF818481021FFF7A9
:100540009DFF322000F030F814481021FFF788FF9B
:10055000322000F029F8124B1B681846114900F0B0
:10056000B7FA0346FB7197F90730002B00D0FEE77E
:10057000002000F00DF94FF478430093012301931C
:100580004FF6FF730293322064216422962300F019
:1005900007FAFEE700100240000801400010014089
:1005A000C0000020A905000880B485B000AF7860C5
:1005B0007B6842F2283202FB03F3FB6002E0FB6837
:1005C000013BFB60FB68002BF9DC1437BD465DF88E
:1005D000047B704780B483B000AF78600B467B80AB
:1005E000054B7A681A60044B7A889A800C37BD46AE
:1005F0005DF8047B704700BFD400002080B483B056
:1006000000AF78600B467B80054B7A681A60044B1C
:100610007A889A800C37BD465DF8047B704700BF2E
:10062000E400002080B483B000AF78600B467B808C
:10063000054B7A681A60044B7A889A800C37BD465D
:100640005DF8047B704700BFF000002080B483B0E9
:1006500000AF78600B467B80054B7A681A60044BCC
:100660007A889A800C37BD465DF8047B704700BFDE
:10067000C400002080B483B000AF78600B467B805C
:10068000054B7A681A60054B7A881A800C37BD468C
:100690005DF8047B704700BFEC00002000000020E4
:1006A00080B582B000AF78600B467B80184B1B682A
:1006B0001B78012B21D1174B1B68164A9288120414
:1006C0001A61134B1B685B6A7A8810469847124B75
:1006D0001B68114A928812041A610F4B1B680E4A5C
:1006E00092881A617B685A1E7A60002BE9D1094B07
:1006F0001B68084A92881A6107E0084B7A881A80BA
:100700007B685A1E7A60002BF7D10837BD4680BD42
:1007100004000020C4000020F0000020000002605F
:1007200098B500AF064B1B681C6B054B1B689A887D
:10073000034B1B68DB8800200021A04798BD00BF49
:100740000400002090B585B000AFF880B9807A80B1
:100750003B807A88FB88D31A01333988BA888A1A91
:10076000013202FB03F3FB60084B1B681C6BF8882B
:10077000B9887A883B88A0473B8CF8681946FFF710
:100780008FFFFFF7CDFF1437BD4690BD040000205A
:1007900080B582B000AF0346FB80FFF7C1FF054B79
:1007A0001B689A68FB8810461946FFF779FF0837DF
:1007B000BD4680BD0400002080B582B000AFF88047
:1007C000B9807A803B80B7F90230002B07DA7B884A
:1007D0005B429BB27B807B88BA88D31ABB80244B58
:1007E0001B689B88FA889A4203D9214B1B689B8817
:1007F000FB801F4B1B68DB88BA889A4203D91C4BCD
:100800001B68DB88BB80BA88B7F902301A44184BE2
:100810001B68DB889A4206DD154B1B68DA88BB88AB
:10082000D31A9BB27B80134B1B68124A9288120426
:100830001A610F4B1B685B6BF988BA880846114632
:1008400098470B4B1B685B6A3A8810469847BB88F1
:100850000133BB807B881A46013A7A80002BE8D1AD
:10086000044B1B68034A92881A610837BD4680BD55
:1008700004000020C400002080B582B000AFF880E2
:10088000B9807A803B80B7F90230002B07DA7B8889
:100890005B429BB27B807B88FA88D31AFB80234B18
:1008A0001B689B88FA889A4203D9204B1B689B8857
:1008B000FB80FA88B7F902301A441C4B1B689B88EE
:1008C0009A4206DD194B1B689A88FB88D31A9BB2A3
:1008D0007B80164B1B68DB88BA889A4203D9134B7E
:1008E0001B68DB88BB80124B1B68114A928812047C
:1008F0001A610E4B1B685B6BF988BA880846114673
:1009000098470A4B1B685B6A3A88104698477B8871
:100910001A46013A7A80002BF3D1054B1B68044A32
:1009200092881A610837BD4680BD00BF04000020D0
:10093000C400002080B582B000AFF880B9807A8012
:100940003B803A88BB88D31A9BB29BB2F888B9889F
:100950001AB23B8AFFF730FF3A88BB88D31A9BB2A2
:100960009BB27888B9881AB23B8AFFF725FF7A884C
:10097000FB88D31A9BB29BB2F888B9881AB23B8A1B
:10098000FFF77AFF7A88FB88D31A9BB29BB2F8886C
:1009900039881AB23B8AFFF76FFF0837BD4680BD22
:1009A00090B585B002AFF880B9807A803B80F88836
:1009B000B9887A883B883C8B0094FFF7C3FE3B7F65
:1009C000012B07D1F888B9887A883B883C8C009441
:1009D000FFF7B0FF0C37BD4690BD00BF80B400AF3D
:1009E000324B1B681B78002B10D1304B1B68304AF0
:1009F0009A612E4B1B682F4ADA612C4B1B682E4ADA
:100A00001A622A4B1B682B4A5A624BE0274B1B6821
:100A10001B78012B46D1254B1B68284A9A61234B32
:100A20001B68274ADA61214B1B689B78102B09D180
:100A30001E4B1B685B78082B04D11C4B1B68214A9A
:100A40005A622BE0194B1B689B78102B09D1174B6E
:100A50001B685B78102B04D1144B1B68184A5A6230
:100A60001CE0124B1B689B78122B09D10F4B1B68A3
:100A70005B78082B04D10D4B1B68134A5A620DE0BA
:100A80000A4B1B689B78122B08D1084B1B685B78BC
:100A9000102B03D1054B1B680C4A5A62034B1B6891
:100AA00000221A62BD465DF8047B704704000020F6
:100AB000510B00086D0B00088D0B0008A50B0008FA
:100AC000090C0008510C0008C90C0008710D000841
:100AD00080B582B000AF786039600B4B7A681A60DD
:100AE000FFF77CFF3B68002B08D03A68074B1A6081
:100AF000054B1B689B6A9847002300E0FF235BB20D
:100B000018460837BD4680BD04000020BC00002008
:100B100080B483B000AF0346FB71FB79012B05D095
:100B2000022B05D0002B05D1064B04E0064B02E05A
:100B3000064B00E0002318460C37BD465DF8047BE9
:100B4000704700BF80000020440000200800002003
:100B500080B483B000AF0346FB804FF0C043FA88F7
:100B60001A800C37BD465DF8047B704780B483B0B3
:100B700000AF0346FB80044BFA881A800C37BD4651
:100B80005DF8047B704700BF0000026080B400AFD6
:100B9000034B1B889BB21846BD465DF8047B70472B
:100BA0000000026080B483B000AF0346FB80124BAC
:100BB0001B68114A928812041A61104B1B68104A74
:100BC00012885A610D4B1B68FA881A610D4B1B681D
:100BD0000C4A928812041A610A4B1B68094A9288CF
:100BE0001A61054B1B68044A92881A610C37BD468E
:100BF0005DF8047B704700BFE4000020EC0000209B
:100C000000000020F000002080B483B000AF034655
:100C1000FB800C4B1B680C4A12885A61094B1B68FD
:100C2000FA881A61094B1B68084A928812041A61F3
:100C3000064B1B68054A92881A610C37BD465DF861
:100C4000047B7047EC00002000000020F000002032
:100C500080B483B000AF0346FB80184B1B68184A72
:100C600012885A61154B1B68FA88120A92B21A61EF
:100C7000144B1B68134A928812041A61114B1B68AB
:100C8000104A92881A610D4B1B680D4A12885A61EE
:100C90000A4B1B68FA88D2B21A610A4B1B68094AD0
:100CA000928812041A61074B1B68064A92881A61DF
:100CB0000C37BD465DF8047B704700BFEC00002098
:100CC00000000020F000002080B483B000AF034695
:100CD000FB80244B1B68244A12885A61214B1B68F5
:100CE000FA8802F4784212121A61204B1B681F4ADC
:100CF000928812041A611D4B1B681C4A92881A6163
:100D0000184B1B68184A12885A61164B1B68FA88E0
:100D100002F4FC62D2101A61144B1B68134A9288C9
:100D200012041A61114B1B68104A92881A610D4B0C
:100D30001B680D4A12885A610A4B1B68FA88D20058
:100D4000D2B21A61094B1B68084A928812041A61D0
:100D5000064B1B68054A92881A610C37BD465DF840
:100D6000047B7047EC00002000000020F000002011
:100D700080B483B000AF0346FB80184B1B68184A51
:100D800012885A61154B1B68FA88120A92B21A61CE
:100D9000144B1B68134A92881A61124B1B68114A44
:100DA000928812041A610D4B1B680D4A12885A6111
:100DB0000A4B1B68FA88D2B21A610B4B1B680A4AAD
:100DC000928812041A61084B1B68074A92881A61BC
:100DD0000C37BD465DF8047B704700BFEC00002077
:100DE00000000020CC000020F000002080B582B080
:100DF00000AF02460B46FA80BB80074B1B689B691D
:100E0000FA8810469847044B1B68DB69BA8810467D
:100E100098470837BD4680BD0400002080B500AF6C
:100E2000024B9B692220984780BD00BF080000202C
:100E300080B500AF6F4B1B68322098476E4B1B6824
:100E40006D4A928812041A6183200221FFF7CEFFB7
:100E500085200321FFF7CAFF8C209321FFF7C6FFEF
:100E600091200121FFF7C2FF83200021FFF7BEFF81
:100E70003E20B021FFF7BAFF3F200321FFF7B6FF66
:100E800040201021FFF7B2FF41205621FFF7AEFFAF
:100E900042201321FFF7AAFF43204621FFF7A6FFB8
:100EA00044202321FFF7A2FF45207621FFF79EFF74
:100EB00046204F21FFF79AFF47205F21FFF796FF5B
:100EC00048204F21FFF792FF49204F21FFF78EFF67
:100ED00017206121FFF78AFF2B20F921FFF786FFFA
:100EE000444B1B680A2098471B201421FFF77EFF04
:100EF0001A201121FFF77AFF1C200D21FFF776FF42
:100F00001F203D21FFF772FF3A4B1B6814209847C2
:100F100019200A21FFF76AFF19201A21FFF766FF3F
:100F2000344B1B682820984719201221FFF75EFFD9
:100F3000304B1B68282098471E202021FFF756FFC2
:100F40002C4B1B68322098473C206021FFF74EFF56
:100F50003D204021FFF74AFF34203821FFF746FFAC
:100F600035203821FFF742FF24203821FFF73EFFCC
:100F7000204B1B682820984724203C21FFF736FF90
:100F800016201C21FFF732FF01200621FFF72EFF5C
:100F900055200021FFF72AFF02200021FFF726FF3E
:100FA00003200021FFF722FF04200021FFF71EFF8E
:100FB0000520EF21FFF71AFF06200021FFF716FF9B
:100FC00007200021FFF712FF08200121FFF70EFF85
:100FD00009208F21FFF70AFF084B9B6922209847C1
:100FE000054B1B68044A92881A61024B1B68322029
:100FF000984780BDBC000020C400002008000020ED
:1010000080B483B000AF0346FB71104B1B680F4ADE
:10101000928812041A61FB79032B0BD801A252F8B3
:1010200023F000BF35100008351000083510000807
:101030003510000800BF054B1B68044A92881A61EE
:101040000C37BD465DF8047B704700BFC40000202C
:1010500080B582B000AF02460B46FA80BB801C4BC5
:101060001B681B4A928812041A611A4B9A89FB88E2
:101070001B0A9BB210461946FFF7B8FE154B9B8919
:1010800001339AB2FB88DBB210461946FFF7AEFE79
:10109000104BDA89BB881B0A9BB210461946FFF732
:1010A000A5FE0C4BDB8901339AB2BB88DBB210463C
:1010B0001946FFF79BFE074B9B6922209847044B7C
:1010C0001B68034A92881A610837BD4680BD00BF7D
:1010D000C40000200800002080B582B000AFF88076
:1010E000B9807A803B80214B1B68204A9288120489
:1010F0001A61BB881B0A9BB202201946FFF776FED5
:10110000BB8803201946FFF771FE3B881B0A9BB280
:1011100004201946FFF76AFE3B8805201946FFF7B1
:1011200065FEFB881B0A9BB206201946FFF75EFE90
:10113000FB8807201946FFF759FE7B881B0A9BB2E4
:1011400008201946FFF752FE7B8809201946FFF751
:101150004DFE074B9B6922209847044B1B68034AAE
:1011600092881A610837BD4680BD00BFC4000020C8
:101170000800002080B483B000AF78600B467B800D
:101180000C37BD465DF8047B704700BF80B500AFEB
:10119000024B9B692220984780BD00BF440000207D
:1011A00080B500AFB64B1B6832209847B54B1B6823
:1011B000B44A928812041A6100200121FFF716FE3A
:1011C000AF4B1B680520984703204AF6A401FFF7A0
:1011D0000DFEAB4B1B68052098470C200021FFF744
:1011E00005FEA74B1B68052098470D2040F60C0113
:1011F000FFF7FCFDA24B1B68052098470E204FF41B
:101200002C51FFF7F3FD9E4B1B68052098471E20CD
:10121000B021FFF7EBFD9A4B1B6805209847012092
:1012200042F63F11FFF7E2FD954B1B6805209847FA
:1012300002204FF4C061FFF7D9FD914B1B680520D8
:10124000984710200021FFF7D1FD8D4B1B6805202A
:101250009847112046F27801FFF7C8FD884B1B68BC
:101260000520984705200021FFF7C0FD844B1B682F
:101270000520984706200021FFF7B8FD804B1B682A
:101280000520984716204EF61C71FFF7AFFD7C4BEA
:101290001B680520984717200321FFF7A7FD784B0F
:1012A0001B6805209847072040F23311FFF79EFD89
:1012B000734B1B68052098470B200021FFF796FD14
:1012C0006F4B1B68052098470F200021FFF78EFD0C
:1012D0006B4B1B680520984741200021FFF786FDD6
:1012E000674B1B680520984742200021FFF77EFDD1
:1012F000634B1B680520984748200021FFF776FDC7
:101300005F4B1B6805209847492040F23F11FFF7CB
:101310006DFD5B4B1B68052098474A200021FFF7B5
:1013200065FD574B1B68052098474B200021FFF7B0
:101330005DFD534B1B680520984744204FF46F41D7
:10134000FFF754FD4E4B1B680520984745200021B0
:10135000FFF74CFD4A4B1B6805209847462040F29A
:101360003F11FFF743FD464B1B680520984730208F
:1013700040F20771FFF73AFD414B1B680520984783
:1013800031204FF40171FFF731FD3D4B1B68052003
:10139000984732204FF40171FFF728FD384B1B6846
:1013A00005209847332040F20251FFF71FFD344BD0
:1013B0001B6805209847342040F20751FFF716FDBF
:1013C0002F4B1B680520984735204FF40171FFF71C
:1013D0000DFD2B4B1B680520984736204FF40171FB
:1013E000FFF704FD264B1B6805209847372040F285
:1013F0000251FFF7FBFC224B1B68052098473A205F
:1014000040F20231FFF7F2FC1D4B1B6805209847A4
:101410003B2040F20231FFF7E9FC194B1B68052025
:10142000984723200021FFF7E1FC154B1B6805209E
:10143000984724200021FFF7D9FC114B1B68052099
:10144000984725204FF40041FFF7D0FC0C4B1B6858
:10145000052098474F200021FFF7C8FC4E200021AF
:10146000FFF7C4FC084B9B6922209847054B1B687B
:10147000044A92881A61024B1B683220984780BD4B
:10148000BC000020C40000204400002080B582B0D1
:1014900000AF0346FB71414B1B68404A928812041F
:1014A0001A61FB79032B6FD801A252F823F000BF19
:1014B000C1140008F314000825150008571500088A
:1014C000012042F63F11FFF791FC354B1B680520C8
:1014D0009847112046F27001FFF788FC304B1B68DB
:1014E000052098472F4B4E229A812E4B4F22DA81AE
:1014F0004BE0012042F63F31FFF778FC284B1B6898
:1015000005209847112046F27801FFF76FFC244B25
:101510001B6805209847234B4F229A81214B4E226E
:10152000DA8132E0012046F63F31FFF75FFC1C4BC9
:101530001B6805209847112046F27001FFF756FC02
:10154000174B1B6805209847164B4E229A81154B66
:101550004F22DA8119E0012046F63F11FFF746FCE1
:101560000F4B1B6805209847112046F27801FFF7C2
:101570003DFC0B4B1B68052098470A4B4F229A8174
:10158000084B4E22DA8100E000BF044B1B68034A7F
:1015900092881A610837BD4680BD00BFC400002094
:1015A000BC0000204400002080B582B000AF02469D
:1015B0000B46FA80BB800A4B9A89FB881046194675
:1015C000FFF714FC064BDA89BB8810461946FFF773
:1015D0000DFC034B9B69222098470837BD4680BD10
:1015E0004400002080B584B000AFF880B9807A80D4
:1015F0003B80FB88FB81BB88BB817B887B813B88F0
:101600003B81224B1B68214A928812041A61204BAD
:101610009A89FB8810461946FFF7E8FB1C4BDA89CC
:10162000BB8810461946FFF7E1FB194B1B7C012BC9
:1016300003D0174B1B7C032B07D1BB88FB81FB8896
:10164000BB813B887B817B883B817B891B029AB273
:10165000FB8913439BB29BB244201946FFF7C6FB9C
:10166000BB8945201946FFF7C1FB3B894620194637
:10167000FFF7BCFB064B9B6922209847034B1B6876
:10168000024A92881A611037BD4680BDC40000200E
:101690004400002080B483B000AF78600B467B80AC
:1016A0000C37BD465DF8047B704700BF80B500AFC6
:1016B000024B9B692C20984780BD00BF8000002012
:1016C00080B500AF914B9B69FF2098478F4B9B697A
:1016D000FF2098478E4B1B68052098478B4B9B69D2
:1016E000FF209847894B9B69FF209847874B9B6950
:1016F000FF209847854B9B69FF209847844B1B68C8
:101700000A209847814B9B69B02098477F4BDB6943
:10171000002098477D4B9B69112098477C4B1B68A4
:1017200096209847794B9B69B3209847774BDB69A4
:1017300002209847754BDB6900209847734BDB69A3
:1017400000209847714BDB69002098476F4B9B69DD
:10175000C02098476D4BDB69132098476B4BDB69C2
:101760003B209847694BDB6900209847674BDB6952
:1017700002209847654BDB6900209847634BDB6983
:1017800001209847614BDB69002098475F4BDB697C
:10179000432098475D4B9B69C12098475B4BDB69B1
:1017A00008209847594BDB6916209847574BDB694F
:1017B00008209847554BDB6908209847534B9B6995
:1017C000C4209847514BDB69112098474F4BDB6988
:1017D000072098474D4BDB69032098474B4BDB694B
:1017E00003209847494B9B69C6209847474BDB69C4
:1017F00000209847454B9B69C8209847434BDB69BD
:1018000003209847414BDB69032098473F4BDB6936
:10181000132098473D4BDB695C2098473B4BDB69C5
:1018200003209847394BDB6907209847374BDB6922
:1018300014209847354BDB6908209847334BDB6908
:1018400000209847314BDB69212098472F4BDB69FB
:10185000082098472D4BDB69142098472B4BDB69F8
:1018600007209847294BDB6953209847274BDB69B2
:101870000C209847254BDB6913209847234BDB69E5
:1018800003209847214BDB69032098471F4BDB69F6
:10189000212098471D4BDB69002098471B4B9B6913
:1018A00035209847194BDB6900209847174B9B69F7
:1018B00036209847154BDB69E0209847134B9B690E
:1018C0003A209847114BDB69552098470F4B9B698D
:1018D000442098470D4BDB69002098470B4BDB6990
:1018E00001209847094B9B69D0209847074BDB693B
:1018F00007209847054BDB6907209847034BDB69B6
:101900001D209847014BDB6904E000BF80000020E8
:10191000BC00002003209847304B9B69D12098479A
:101920002E4BDB69032098472C4BDB69302098470E
:101930002A4BDB6910209847284B9B69D220984797
:10194000264BDB6903209847244BDB69142098471A
:10195000224BDB6904209847204B9B69292098473C
:101960001F4B1B681E2098471C4B9B692A209847D9
:101970001A4BDB6900209847184BDB690020984719
:10198000164BDB6901209847144BDB693F209847D1
:10199000124B9B692B209847104BDB69002098471E
:1019A0000E4BDB69002098470C4BDB690120984700
:1019B0000A4BDB69DF209847084B9B69B4209847A6
:1019C000064BDB6900209847054B1B68642098474D
:1019D000024B9B692C20984780BD00BF80000020EF
:1019E000BC00002080B582B000AF0346FB71FB79DC
:1019F000032B29D801A252F823F000BF0D1A0008CA
:101A00002B1A0008491A0008491A0008144B9B6950
:101A100036209847124BDB6980209847104B2A22CA
:101A20009A810F4B2B22DA810FE00D4B9B693620F8
:101A300098470B4BDB69E0209847094B2A229A8193
:101A4000074B2B22DA8100E000BF054B9A88044B3C
:101A5000DB880020002100F03DF80837BD4680BD3E
:101A60008000002080B582B000AF02460B46FA80AD
:101A7000BB80174B9B69164A928910469847144BB6
:101A8000DB69FA88120A92B2D2B210469847104B1C
:101A9000DB69FA88D2B2104698470D4B9B690C4A15
:101AA000D289104698470A4BDB69BA88120A92B26B
:101AB000D2B210469847064BDB69BA88D2B21046BC
:101AC0009847034B9B692C2098470837BD4680BD3B
:101AD0008000002080B582B000AFF880B9807A80A5
:101AE0003B80214B9B69204A9289104698471E4BA8
:101AF000DB69FA88120A92B2104698471A4BDB69E2
:101B0000FA8810469847184BDB697A88120A92B215
:101B100010469847144BDB697A8810469847124B59
:101B20009B69114AD289104698470F4BDB69BA88E6
:101B3000120A92B2104698470B4BDB69BA881046DE
:101B40009847094BDB693A88120A92B210469847C7
:101B5000054BDB693A8810469847034B9B692C205C
:101B600098470837BD4680BD8000002080B584B00E
:101B700000AF78600B467B802C4B9B692E209847EA
:101B80002A4B1B6A98470346BB810023FB8143E035
:101B9000264B1B6A98470346BB81BB899BB29B0AB5
:101BA0009BB2DAB27B681A707B680133BA8992B251
:101BB000D2B29210D2B21A701C4B1B6A98470346DD
:101BC000BB817B680233BA8992B2920A92B2D2B2D6
:101BD0001A707B680333BA8992B2D2B29210D2B231
:101BE0001A70124B1B6A98470346BB817B6804330B
:101BF000BA8992B2920A92B2D2B21A707B68053355
:101C0000BA8992B2D2B29210D2B21A707B680633FD
:101C10007B60FB890133FB817B885B089BB2FA897F
:101C20009A42B5D31037BD4680BD00BF800000206A
:101C3000FFFF000080000020010812008F01EF006C
:101C40000077010006000200000000001D0E0008E1
:101C50000000000000000000000000000000000084
:101C6000310E000801100008D910000851100008BA
:101C70007511000801101000EF003F01002C010059
:101C80004E004F00000000008D1100080000000011
:101C9000000000000000000000000000A11100088A
:101CA0008D140008E5150008A91500089516000810
:101CB000001010003F01DF01005802002A002B0035
:101CC00000000000AD160008000000000000000049
:101CD0000000000000000000C1160008E51900081F
:0C1CE000D51A0008651A00086D1B0008EA
:0400000508000000EF
:00000001FF
